{
  "contractName": "SolnSquareVerifier",
  "abi": [
    {
      "constant": true,
      "inputs": [
        {
          "name": "interfaceId",
          "type": "bytes4"
        }
      ],
      "name": "supportsInterface",
      "outputs": [
        {
          "name": "",
          "type": "bool"
        }
      ],
      "payable": false,
      "stateMutability": "view",
      "type": "function"
    },
    {
      "constant": true,
      "inputs": [],
      "name": "name",
      "outputs": [
        {
          "name": "",
          "type": "string"
        }
      ],
      "payable": false,
      "stateMutability": "view",
      "type": "function"
    },
    {
      "constant": true,
      "inputs": [
        {
          "name": "tokenId",
          "type": "uint256"
        }
      ],
      "name": "getApproved",
      "outputs": [
        {
          "name": "",
          "type": "address"
        }
      ],
      "payable": false,
      "stateMutability": "view",
      "type": "function"
    },
    {
      "constant": false,
      "inputs": [
        {
          "name": "to",
          "type": "address"
        },
        {
          "name": "tokenId",
          "type": "uint256"
        }
      ],
      "name": "approve",
      "outputs": [],
      "payable": false,
      "stateMutability": "nonpayable",
      "type": "function"
    },
    {
      "constant": false,
      "inputs": [
        {
          "name": "_paused",
          "type": "bool"
        }
      ],
      "name": "setPaused",
      "outputs": [],
      "payable": false,
      "stateMutability": "nonpayable",
      "type": "function"
    },
    {
      "constant": true,
      "inputs": [],
      "name": "totalSupply",
      "outputs": [
        {
          "name": "",
          "type": "uint256"
        }
      ],
      "payable": false,
      "stateMutability": "view",
      "type": "function"
    },
    {
      "constant": false,
      "inputs": [
        {
          "name": "from",
          "type": "address"
        },
        {
          "name": "to",
          "type": "address"
        },
        {
          "name": "tokenId",
          "type": "uint256"
        }
      ],
      "name": "transferFrom",
      "outputs": [],
      "payable": false,
      "stateMutability": "nonpayable",
      "type": "function"
    },
    {
      "constant": false,
      "inputs": [
        {
          "name": "_myid",
          "type": "bytes32"
        },
        {
          "name": "_result",
          "type": "string"
        }
      ],
      "name": "__callback",
      "outputs": [],
      "payable": false,
      "stateMutability": "nonpayable",
      "type": "function"
    },
    {
      "constant": true,
      "inputs": [
        {
          "name": "owner",
          "type": "address"
        },
        {
          "name": "index",
          "type": "uint256"
        }
      ],
      "name": "tokenOfOwnerByIndex",
      "outputs": [
        {
          "name": "",
          "type": "uint256"
        }
      ],
      "payable": false,
      "stateMutability": "view",
      "type": "function"
    },
    {
      "constant": false,
      "inputs": [
        {
          "name": "_myid",
          "type": "bytes32"
        },
        {
          "name": "_result",
          "type": "string"
        },
        {
          "name": "_proof",
          "type": "bytes"
        }
      ],
      "name": "__callback",
      "outputs": [],
      "payable": false,
      "stateMutability": "nonpayable",
      "type": "function"
    },
    {
      "constant": false,
      "inputs": [
        {
          "name": "from",
          "type": "address"
        },
        {
          "name": "to",
          "type": "address"
        },
        {
          "name": "tokenId",
          "type": "uint256"
        }
      ],
      "name": "safeTransferFrom",
      "outputs": [],
      "payable": false,
      "stateMutability": "nonpayable",
      "type": "function"
    },
    {
      "constant": true,
      "inputs": [
        {
          "name": "index",
          "type": "uint256"
        }
      ],
      "name": "tokenByIndex",
      "outputs": [
        {
          "name": "",
          "type": "uint256"
        }
      ],
      "payable": false,
      "stateMutability": "view",
      "type": "function"
    },
    {
      "constant": false,
      "inputs": [
        {
          "name": "a",
          "type": "uint256[2]"
        },
        {
          "name": "b",
          "type": "uint256[2][2]"
        },
        {
          "name": "c",
          "type": "uint256[2]"
        },
        {
          "name": "input",
          "type": "uint256[2]"
        }
      ],
      "name": "verifyTx",
      "outputs": [
        {
          "name": "r",
          "type": "bool"
        }
      ],
      "payable": false,
      "stateMutability": "nonpayable",
      "type": "function"
    },
    {
      "constant": true,
      "inputs": [
        {
          "name": "tokenId",
          "type": "uint256"
        }
      ],
      "name": "ownerOf",
      "outputs": [
        {
          "name": "",
          "type": "address"
        }
      ],
      "payable": false,
      "stateMutability": "view",
      "type": "function"
    },
    {
      "constant": true,
      "inputs": [
        {
          "name": "owner",
          "type": "address"
        }
      ],
      "name": "balanceOf",
      "outputs": [
        {
          "name": "",
          "type": "uint256"
        }
      ],
      "payable": false,
      "stateMutability": "view",
      "type": "function"
    },
    {
      "constant": true,
      "inputs": [],
      "name": "getOwner",
      "outputs": [
        {
          "name": "owner",
          "type": "address"
        }
      ],
      "payable": false,
      "stateMutability": "view",
      "type": "function"
    },
    {
      "constant": true,
      "inputs": [
        {
          "name": "data",
          "type": "bytes32"
        }
      ],
      "name": "bytes32ToString",
      "outputs": [
        {
          "name": "",
          "type": "string"
        }
      ],
      "payable": false,
      "stateMutability": "pure",
      "type": "function"
    },
    {
      "constant": true,
      "inputs": [
        {
          "name": "v",
          "type": "uint256"
        }
      ],
      "name": "uintToBytes",
      "outputs": [
        {
          "name": "ret",
          "type": "bytes32"
        }
      ],
      "payable": false,
      "stateMutability": "pure",
      "type": "function"
    },
    {
      "constant": true,
      "inputs": [],
      "name": "symbol",
      "outputs": [
        {
          "name": "",
          "type": "string"
        }
      ],
      "payable": false,
      "stateMutability": "view",
      "type": "function"
    },
    {
      "constant": false,
      "inputs": [
        {
          "name": "to",
          "type": "address"
        },
        {
          "name": "approved",
          "type": "bool"
        }
      ],
      "name": "setApprovalForAll",
      "outputs": [],
      "payable": false,
      "stateMutability": "nonpayable",
      "type": "function"
    },
    {
      "constant": false,
      "inputs": [
        {
          "name": "from",
          "type": "address"
        },
        {
          "name": "to",
          "type": "address"
        },
        {
          "name": "tokenId",
          "type": "uint256"
        },
        {
          "name": "_data",
          "type": "bytes"
        }
      ],
      "name": "safeTransferFrom",
      "outputs": [],
      "payable": false,
      "stateMutability": "nonpayable",
      "type": "function"
    },
    {
      "constant": true,
      "inputs": [
        {
          "name": "tokenId",
          "type": "uint256"
        }
      ],
      "name": "tokenURI",
      "outputs": [
        {
          "name": "",
          "type": "string"
        }
      ],
      "payable": false,
      "stateMutability": "view",
      "type": "function"
    },
    {
      "constant": true,
      "inputs": [],
      "name": "baseTokenURI",
      "outputs": [
        {
          "name": "",
          "type": "string"
        }
      ],
      "payable": false,
      "stateMutability": "view",
      "type": "function"
    },
    {
      "constant": true,
      "inputs": [
        {
          "name": "owner",
          "type": "address"
        },
        {
          "name": "operator",
          "type": "address"
        }
      ],
      "name": "isApprovedForAll",
      "outputs": [
        {
          "name": "",
          "type": "bool"
        }
      ],
      "payable": false,
      "stateMutability": "view",
      "type": "function"
    },
    {
      "constant": false,
      "inputs": [
        {
          "name": "newOwner",
          "type": "address"
        }
      ],
      "name": "transferOwnership",
      "outputs": [],
      "payable": false,
      "stateMutability": "nonpayable",
      "type": "function"
    },
    {
      "inputs": [
        {
          "name": "name",
          "type": "string"
        },
        {
          "name": "symbol",
          "type": "string"
        }
      ],
      "payable": false,
      "stateMutability": "nonpayable",
      "type": "constructor"
    },
    {
      "anonymous": false,
      "inputs": [
        {
          "indexed": false,
          "name": "proofHash",
          "type": "bytes32"
        },
        {
          "indexed": false,
          "name": "submitterAddress",
          "type": "address"
        }
      ],
      "name": "SolutionAdded",
      "type": "event"
    },
    {
      "anonymous": false,
      "inputs": [
        {
          "indexed": false,
          "name": "s",
          "type": "string"
        }
      ],
      "name": "Verified",
      "type": "event"
    },
    {
      "anonymous": false,
      "inputs": [
        {
          "indexed": true,
          "name": "from",
          "type": "address"
        },
        {
          "indexed": true,
          "name": "to",
          "type": "address"
        },
        {
          "indexed": true,
          "name": "tokenId",
          "type": "uint256"
        }
      ],
      "name": "Transfer",
      "type": "event"
    },
    {
      "anonymous": false,
      "inputs": [
        {
          "indexed": true,
          "name": "owner",
          "type": "address"
        },
        {
          "indexed": true,
          "name": "approved",
          "type": "address"
        },
        {
          "indexed": true,
          "name": "tokenId",
          "type": "uint256"
        }
      ],
      "name": "Approval",
      "type": "event"
    },
    {
      "anonymous": false,
      "inputs": [
        {
          "indexed": true,
          "name": "owner",
          "type": "address"
        },
        {
          "indexed": true,
          "name": "operator",
          "type": "address"
        },
        {
          "indexed": false,
          "name": "approved",
          "type": "bool"
        }
      ],
      "name": "ApprovalForAll",
      "type": "event"
    },
    {
      "anonymous": false,
      "inputs": [
        {
          "indexed": false,
          "name": "_invoker",
          "type": "address"
        }
      ],
      "name": "Paused",
      "type": "event"
    },
    {
      "anonymous": false,
      "inputs": [
        {
          "indexed": false,
          "name": "_invoker",
          "type": "address"
        }
      ],
      "name": "Unpaused",
      "type": "event"
    },
    {
      "anonymous": false,
      "inputs": [
        {
          "indexed": false,
          "name": "oldOwner",
          "type": "address"
        },
        {
          "indexed": false,
          "name": "newOwner",
          "type": "address"
        }
      ],
      "name": "OwnershipTransferred",
      "type": "event"
    },
    {
      "constant": false,
      "inputs": [
        {
          "name": "a",
          "type": "uint256[2]"
        },
        {
          "name": "b",
          "type": "uint256[2][2]"
        },
        {
          "name": "c",
          "type": "uint256[2]"
        },
        {
          "name": "input",
          "type": "uint256[2]"
        }
      ],
      "name": "addSolution",
      "outputs": [],
      "payable": false,
      "stateMutability": "nonpayable",
      "type": "function"
    },
    {
      "constant": false,
      "inputs": [
        {
          "name": "to",
          "type": "address"
        },
        {
          "name": "tokenId",
          "type": "uint256"
        }
      ],
      "name": "mint",
      "outputs": [],
      "payable": false,
      "stateMutability": "nonpayable",
      "type": "function"
    }
  ],
  "bytecode": "0x60806040523480156200001157600080fd5b5060405162004ff638038062004ff6833981018060405260408110156200003757600080fd5b8101908080516401000000008111156200005057600080fd5b828101905060208101848111156200006757600080fd5b81518560018202830111640100000000821117156200008557600080fd5b50509291906020018051640100000000811115620000a257600080fd5b82810190506020810184811115620000b957600080fd5b8151856001820283011164010000000082111715620000d757600080fd5b505092919050505081816040518060600160405280603f815260200162004fb7603f9139336000806101000a81548173ffffffffffffffffffffffffffffffffffffffff021916908373ffffffffffffffffffffffffffffffffffffffff1602179055507f8be0079c531659141344cd1fd0a4f28419497f9722a3daafe3b4186f6b6457e0600033604051808373ffffffffffffffffffffffffffffffffffffffff1673ffffffffffffffffffffffffffffffffffffffff1681526020018273ffffffffffffffffffffffffffffffffffffffff1673ffffffffffffffffffffffffffffffffffffffff1681526020019250505060405180910390a160008060146101000a81548160ff021916908315150217905550620002056301ffc9a760e01b620002a360201b60201c565b6200021d6380ac58cd60e01b620002a360201b60201c565b6200023563780e9d6360e01b620002a360201b60201c565b82600f90805190602001906200024d92919062000345565b5081601090805190602001906200026692919062000345565b5080601190805190602001906200027f92919062000345565b5062000298635b5e139f60e01b620002a360201b60201c565b5050505050620003f4565b63ffffffff60e01b817bffffffffffffffffffffffffffffffffffffffffffffffffffffffff191614151515620002d957600080fd5b6001806000837bffffffffffffffffffffffffffffffffffffffffffffffffffffffff19167bffffffffffffffffffffffffffffffffffffffffffffffffffffffff1916815260200190815260200160002060006101000a81548160ff02191690831515021790555050565b828054600181600116156101000203166002900490600052602060002090601f016020900481019282601f106200038857805160ff1916838001178555620003b9565b82800160010185558215620003b9579182015b82811115620003b85782518255916020019190600101906200039b565b5b509050620003c89190620003cc565b5090565b620003f191905b80821115620003ed576000816000905550600101620003d3565b5090565b90565b614bb380620004046000396000f3fe608060405234801561001057600080fd5b50600436106101a95760003560e01c8063621e9ec0116100f9578063a22cb46511610097578063d547cfb711610071578063d547cfb714610d80578063e985e9c514610e03578063f2fde38b14610e7f578063f76b443114610ec3576101a9565b8063a22cb46514610b84578063b88d4fde14610bd4578063c87b56dd14610cd9576101a9565b8063893d20e8116100d3578063893d20e8146109ce5780639201de5514610a1857806394e8767d14610abf57806395d89b4114610b01576101a9565b8063621e9ec01461078f5780636352211e1461090857806370a0823114610976576101a9565b806323b872dd1161016657806338bbfa501161014057806338bbfa501461053557806340c10f191461069157806342842e0e146106df5780634f6ccce71461074d576101a9565b806323b872dd146103a057806327dc297e1461040e5780632f745c59146104d3576101a9565b806301ffc9a7146101ae57806306fdde0314610213578063081812fc14610296578063095ea7b31461030457806316c38b3c1461035257806318160ddd14610382575b600080fd5b6101f9600480360360208110156101c457600080fd5b8101908080357bffffffffffffffffffffffffffffffffffffffffffffffffffffffff19169060200190929190505050611024565b604051808215151515815260200191505060405180910390f35b61021b61108c565b6040518080602001828103825283818151815260200191508051906020019080838360005b8381101561025b578082015181840152602081019050610240565b50505050905090810190601f1680156102885780820380516001836020036101000a031916815260200191505b509250505060405180910390f35b6102c2600480360360208110156102ac57600080fd5b810190808035906020019092919050505061112e565b604051808273ffffffffffffffffffffffffffffffffffffffff1673ffffffffffffffffffffffffffffffffffffffff16815260200191505060405180910390f35b6103506004803603604081101561031a57600080fd5b81019080803573ffffffffffffffffffffffffffffffffffffffff169060200190929190803590602001909291905050506111e8565b005b6103806004803603602081101561036857600080fd5b810190808035151590602001909291905050506113cc565b005b61038a611490565b6040518082815260200191505060405180910390f35b61040c600480360360608110156103b657600080fd5b81019080803573ffffffffffffffffffffffffffffffffffffffff169060200190929190803573ffffffffffffffffffffffffffffffffffffffff1690602001909291908035906020019092919050505061149d565b005b6104d16004803603604081101561042457600080fd5b81019080803590602001909291908035906020019064010000000081111561044b57600080fd5b82018360208201111561045d57600080fd5b8035906020019184600183028401116401000000008311171561047f57600080fd5b91908080601f016020809104026020016040519081016040528093929190818152602001838380828437600081840152601f19601f82011690508083019250505050505050919291929050505061152b565b005b61051f600480360360408110156104e957600080fd5b81019080803573ffffffffffffffffffffffffffffffffffffffff1690602001909291908035906020019092919050505061156e565b6040518082815260200191505060405180910390f35b61068f6004803603606081101561054b57600080fd5b81019080803590602001909291908035906020019064010000000081111561057257600080fd5b82018360208201111561058457600080fd5b803590602001918460018302840111640100000000831117156105a657600080fd5b91908080601f016020809104026020016040519081016040528093929190818152602001838380828437600081840152601f19601f8201169050808301925050505050505091929192908035906020019064010000000081111561060957600080fd5b82018360208201111561061b57600080fd5b8035906020019184600183028401116401000000008311171561063d57600080fd5b91908080601f016020809104026020016040519081016040528093929190818152602001838380828437600081840152601f19601f820116905080830192505050505050509192919290505050611631565b005b6106dd600480360360408110156106a757600080fd5b81019080803573ffffffffffffffffffffffffffffffffffffffff16906020019092919080359060200190929190505050611636565b005b61074b600480360360608110156106f557600080fd5b81019080803573ffffffffffffffffffffffffffffffffffffffff169060200190929190803573ffffffffffffffffffffffffffffffffffffffff16906020019092919080359060200190929190505050611859565b005b6107796004803603602081101561076357600080fd5b8101908080359060200190929190505050611879565b6040518082815260200191505060405180910390f35b6108ee60048036036101408110156107a657600080fd5b8101908080604001906002806020026040519081016040528092919082600260200280828437600081840152601f19601f82011690508083019250505050505091929192908060800190600280602002604051908101604052809291906000905b8282101561085b578382604002016002806020026040519081016040528092919082600260200280828437600081840152601f19601f82011690508083019250505050505081526020019060010190610807565b50505050919291929080604001906002806020026040519081016040528092919082600260200280828437600081840152601f19601f820116905080830192505050505050919291929080604001906002806020026040519081016040528092919082600260200280828437600081840152601f19601f820116905080830192505050505050919291929050505061191a565b604051808215151515815260200191505060405180910390f35b6109346004803603602081101561091e57600080fd5b8101908080359060200190929190505050611b7f565b604051808273ffffffffffffffffffffffffffffffffffffffff1673ffffffffffffffffffffffffffffffffffffffff16815260200191505060405180910390f35b6109b86004803603602081101561098c57600080fd5b81019080803573ffffffffffffffffffffffffffffffffffffffff169060200190929190505050611bbc565b6040518082815260200191505060405180910390f35b6109d6611c0c565b604051808273ffffffffffffffffffffffffffffffffffffffff1673ffffffffffffffffffffffffffffffffffffffff16815260200191505060405180910390f35b610a4460048036036020811015610a2e57600080fd5b8101908080359060200190929190505050611c35565b6040518080602001828103825283818151815260200191508051906020019080838360005b83811015610a84578082015181840152602081019050610a69565b50505050905090810190601f168015610ab15780820380516001836020036101000a031916815260200191505b509250505060405180910390f35b610aeb60048036036020811015610ad557600080fd5b8101908080359060200190929190505050611d18565b6040518082815260200191505060405180910390f35b610b09611dc0565b6040518080602001828103825283818151815260200191508051906020019080838360005b83811015610b49578082015181840152602081019050610b2e565b50505050905090810190601f168015610b765780820380516001836020036101000a031916815260200191505b509250505060405180910390f35b610bd260048036036040811015610b9a57600080fd5b81019080803573ffffffffffffffffffffffffffffffffffffffff169060200190929190803515159060200190929190505050611e62565b005b610cd760048036036080811015610bea57600080fd5b81019080803573ffffffffffffffffffffffffffffffffffffffff169060200190929190803573ffffffffffffffffffffffffffffffffffffffff1690602001909291908035906020019092919080359060200190640100000000811115610c5157600080fd5b820183602082011115610c6357600080fd5b80359060200191846001830284011164010000000083111715610c8557600080fd5b91908080601f016020809104026020016040519081016040528093929190818152602001838380828437600081840152601f19601f820116905080830192505050505050509192919290505050611fea565b005b610d0560048036036020811015610cef57600080fd5b810190808035906020019092919050505061207b565b6040518080602001828103825283818151815260200191508051906020019080838360005b83811015610d45578082015181840152602081019050610d2a565b50505050905090810190601f168015610d725780820380516001836020036101000a031916815260200191505b509250505060405180910390f35b610d886121ad565b6040518080602001828103825283818151815260200191508051906020019080838360005b83811015610dc8578082015181840152602081019050610dad565b50505050905090810190601f168015610df55780820380516001836020036101000a031916815260200191505b509250505060405180910390f35b610e6560048036036040811015610e1957600080fd5b81019080803573ffffffffffffffffffffffffffffffffffffffff169060200190929190803573ffffffffffffffffffffffffffffffffffffffff16906020019092919050505061224f565b604051808215151515815260200191505060405180910390f35b610ec160048036036020811015610e9557600080fd5b81019080803573ffffffffffffffffffffffffffffffffffffffff1690602001909291905050506122e3565b005b6110226004803603610140811015610eda57600080fd5b8101908080604001906002806020026040519081016040528092919082600260200280828437600081840152601f19601f82011690508083019250505050505091929192908060800190600280602002604051908101604052809291906000905b82821015610f8f578382604002016002806020026040519081016040528092919082600260200280828437600081840152601f19601f82011690508083019250505050505081526020019060010190610f3b565b50505050919291929080604001906002806020026040519081016040528092919082600260200280828437600081840152601f19601f820116905080830192505050505050919291929080604001906002806020026040519081016040528092919082600260200280828437600081840152601f19601f82011690508083019250505050505091929192905050506124f4565b005b600060016000837bffffffffffffffffffffffffffffffffffffffffffffffffffffffff19167bffffffffffffffffffffffffffffffffffffffffffffffffffffffff1916815260200190815260200160002060009054906101000a900460ff169050919050565b6060600f8054600181600116156101000203166002900480601f0160208091040260200160405190810160405280929190818152602001828054600181600116156101000203166002900480156111245780601f106110f957610100808354040283529160200191611124565b820191906000526020600020905b81548152906001019060200180831161110757829003601f168201915b5050505050905090565b600061113982612909565b15156111ad576040517f08c379a00000000000000000000000000000000000000000000000000000000081526004018080602001828103825260148152602001807f546f6b656e20646f6573206e6f7420657869737400000000000000000000000081525060200191505060405180910390fd5b6003600083815260200190815260200160002060009054906101000a900473ffffffffffffffffffffffffffffffffffffffff169050919050565b60006111f382611b7f565b90508073ffffffffffffffffffffffffffffffffffffffff168373ffffffffffffffffffffffffffffffffffffffff161415151561127c576040517f08c379a000000000000000000000000000000000000000000000000000000000815260040180806020018281038252603e815260200180614b19603e913960400191505060405180910390fd5b8073ffffffffffffffffffffffffffffffffffffffff163373ffffffffffffffffffffffffffffffffffffffff1614806112c35750600115156112bf823361224f565b1515145b151561131a576040517f08c379a0000000000000000000000000000000000000000000000000000000008152600401808060200182810382526031815260200180614b576031913960400191505060405180910390fd5b826003600084815260200190815260200160002060006101000a81548173ffffffffffffffffffffffffffffffffffffffff021916908373ffffffffffffffffffffffffffffffffffffffff160217905550818373ffffffffffffffffffffffffffffffffffffffff168273ffffffffffffffffffffffffffffffffffffffff167f8c5be1e5ebec7d5bd14f71427d1e84f3dd0314c0f7b2291e5b200ac8c7c3b92560405160405180910390a4505050565b6000809054906101000a900473ffffffffffffffffffffffffffffffffffffffff1673ffffffffffffffffffffffffffffffffffffffff163373ffffffffffffffffffffffffffffffffffffffff16141515611473576040517f08c379a000000000000000000000000000000000000000000000000000000000815260040180806020018281038252602d8152602001806149e4602d913960400191505060405180910390fd5b80600060146101000a81548160ff02191690831515021790555050565b6000600880549050905090565b6114a7338261297b565b151561151b576040517f08c379a000000000000000000000000000000000000000000000000000000000815260040180806020018281038252601b8152602001807f4e6f7420617070726f766564206f72206e6f74206f776e6572cb9a000000000081525060200191505060405180910390fd5b611526838383612a10565b505050565b61156a828260006040519080825280601f01601f1916602001820160405280156115645781602001600182028038833980820191505090505b50611631565b5050565b600061157983611bbc565b821015156115d2576040517f08c379a0000000000000000000000000000000000000000000000000000000008152600401808060200182810382526023815260200180614a7f6023913960400191505060405180910390fd5b600660008473ffffffffffffffffffffffffffffffffffffffff1673ffffffffffffffffffffffffffffffffffffffff1681526020019081526020016000208281548110151561161e57fe5b9060005260206000200154905092915050565b505050565b61163e614748565b601460008473ffffffffffffffffffffffffffffffffffffffff1673ffffffffffffffffffffffffffffffffffffffff168152602001908152602001600020604051806060016040529081600082015481526020016001820160009054906101000a900473ffffffffffffffffffffffffffffffffffffffff1673ffffffffffffffffffffffffffffffffffffffff1673ffffffffffffffffffffffffffffffffffffffff1681526020016001820160149054906101000a900460ff16151515158152505090506000801b8160000151111515611783576040517f08c379a00000000000000000000000000000000000000000000000000000000081526004018080602001828103825260178152602001807f536f6c7574696f6e20646f6573206e6f7420657869737400000000000000000081525060200191505060405180910390fd5b60001515816040015115151415156117e6576040517f08c379a00000000000000000000000000000000000000000000000000000000081526004018080602001828103825260308152602001806149b46030913960400191505060405180910390fd5b6117f08383612a34565b6001601460008573ffffffffffffffffffffffffffffffffffffffff1673ffffffffffffffffffffffffffffffffffffffff16815260200190815260200160002060010160146101000a81548160ff02191690831515021790555061185482612a55565b505050565b61187483838360405180602001604052806000815250611fea565b505050565b6000611883611490565b821015156118f9576040517f08c379a000000000000000000000000000000000000000000000000000000000815260040180806020018281038252601f8152602001807f546f74616c20737570706c79206973206c657373207468616e20696e6465780081525060200191505060405180910390fd5b60088281548110151561190857fe5b90600052602060002001549050919050565b6000611924614784565b604051806040016040528087600060028110151561193e57fe5b6020020151815260200187600160028110151561195757fe5b602002015181525081600001819052506040518060400160405280604051806040016040528088600060028110151561198c57fe5b6020020151600060028110151561199f57fe5b602002015181526020018860006002811015156119b857fe5b602002015160016002811015156119cb57fe5b6020020151815250815260200160405180604001604052808860016002811015156119f257fe5b60200201516000600281101515611a0557fe5b60200201518152602001886001600281101515611a1e57fe5b60200201516001600281101515611a3157fe5b602002015181525081525081602001819052506040518060400160405280856000600281101515611a5e57fe5b60200201518152602001856001600281101515611a7757fe5b6020020151815250816040018190525060606002604051908082528060200260200182016040528015611ab95781602001602082028038833980820191505090505b50905060008090505b6002811015611b07578481600281101515611ad957fe5b60200201518282815181101515611aec57fe5b90602001906020020181815250508080600101915050611ac2565b506000611b148284612bb7565b1415611b70577f3f3cfdb26fb5f9f1786ab4f1a1f9cd4c0b5e726cbdfc26e495261731aad44e39604051808060200182810382526022815260200180614a326022913960400191505060405180910390a1600192505050611b77565b6000925050505b949350505050565b60006002600083815260200190815260200160002060009054906101000a900473ffffffffffffffffffffffffffffffffffffffff169050919050565b6000611c05600460008473ffffffffffffffffffffffffffffffffffffffff1673ffffffffffffffffffffffffffffffffffffffff168152602001908152602001600020612d3f565b9050919050565b60008060009054906101000a900473ffffffffffffffffffffffffffffffffffffffff16905090565b60608060206040519080825280601f01601f191660200182016040528015611c6c5781602001600182028038833980820191505090505b50905060008090505b6020811015611d0e5760008160080260020a8560001c0260001b9050600060f81b817effffffffffffffffffffffffffffffffffffffffffffffffffffffffffffff1916141515611d0057808383815181101515611ccf57fe5b9060200101907effffffffffffffffffffffffffffffffffffffffffffffffffffffffffffff1916908160001a9053505b508080600101915050611c75565b5080915050919050565b600080821415611d4a577f30000000000000000000000000000000000000000000000000000000000000009050611db8565b5b6000821115611db7576101008160001c811515611d6457fe5b0460001b90507f01000000000000000000000000000000000000000000000000000000000000006030600a84811515611d9957fe5b06010260001b81179050600a82811515611daf57fe5b049150611d4b565b5b809050919050565b606060108054600181600116156101000203166002900480601f016020809104026020016040519081016040528092919081815260200182805460018160011615610100020316600290048015611e585780601f10611e2d57610100808354040283529160200191611e58565b820191906000526020600020905b815481529060010190602001808311611e3b57829003601f168201915b5050505050905090565b3373ffffffffffffffffffffffffffffffffffffffff168273ffffffffffffffffffffffffffffffffffffffff1614151515611ee9576040517f08c379a0000000000000000000000000000000000000000000000000000000008152600401808060200182810382526032815260200180614ac46032913960400191505060405180910390fd5b80600560003373ffffffffffffffffffffffffffffffffffffffff1673ffffffffffffffffffffffffffffffffffffffff16815260200190815260200160002060008473ffffffffffffffffffffffffffffffffffffffff1673ffffffffffffffffffffffffffffffffffffffff16815260200190815260200160002060006101000a81548160ff0219169083151502179055508173ffffffffffffffffffffffffffffffffffffffff163373ffffffffffffffffffffffffffffffffffffffff167f17307eab39ab6107e8899845ad3d59bd9653f200f220920489ca2b5937696c3183604051808215151515815260200191505060405180910390a35050565b611ff584848461149d565b61200184848484612d4d565b1515612075576040517f08c379a00000000000000000000000000000000000000000000000000000000081526004018080602001828103825260158152602001807f546f6b656e206973206e6f74207265636569766564000000000000000000000081525060200191505060405180910390fd5b50505050565b606061208682612909565b15156120fa576040517f08c379a00000000000000000000000000000000000000000000000000000000081526004018080602001828103825260148152602001807f546f6b656e20646f6573206e6f7420657869737400000000000000000000000081525060200191505060405180910390fd5b601260008381526020019081526020016000208054600181600116156101000203166002900480601f0160208091040260200160405190810160405280929190818152602001828054600181600116156101000203166002900480156121a15780601f10612176576101008083540402835291602001916121a1565b820191906000526020600020905b81548152906001019060200180831161218457829003601f168201915b50505050509050919050565b606060118054600181600116156101000203166002900480601f0160208091040260200160405190810160405280929190818152602001828054600181600116156101000203166002900480156122455780601f1061221a57610100808354040283529160200191612245565b820191906000526020600020905b81548152906001019060200180831161222857829003601f168201915b5050505050905090565b6000600560008473ffffffffffffffffffffffffffffffffffffffff1673ffffffffffffffffffffffffffffffffffffffff16815260200190815260200160002060008373ffffffffffffffffffffffffffffffffffffffff1673ffffffffffffffffffffffffffffffffffffffff16815260200190815260200160002060009054906101000a900460ff16905092915050565b6000809054906101000a900473ffffffffffffffffffffffffffffffffffffffff1673ffffffffffffffffffffffffffffffffffffffff163373ffffffffffffffffffffffffffffffffffffffff1614151561238a576040517f08c379a000000000000000000000000000000000000000000000000000000000815260040180806020018281038252602d8152602001806149e4602d913960400191505060405180910390fd5b806000151561239882612f38565b15151415156123f2576040517f08c379a0000000000000000000000000000000000000000000000000000000008152600401808060200182810382526022815260200180614aa26022913960400191505060405180910390fd5b60008060009054906101000a900473ffffffffffffffffffffffffffffffffffffffff169050826000806101000a81548173ffffffffffffffffffffffffffffffffffffffff021916908373ffffffffffffffffffffffffffffffffffffffff1602179055507f8be0079c531659141344cd1fd0a4f28419497f9722a3daafe3b4186f6b6457e08184604051808373ffffffffffffffffffffffffffffffffffffffff1673ffffffffffffffffffffffffffffffffffffffff1681526020018273ffffffffffffffffffffffffffffffffffffffff1673ffffffffffffffffffffffffffffffffffffffff1681526020019250505060405180910390a1505050565b600061250285858585612f83565b9050600073ffffffffffffffffffffffffffffffffffffffff166015600083815260200190815260200160002060010160009054906101000a900473ffffffffffffffffffffffffffffffffffffffff1673ffffffffffffffffffffffffffffffffffffffff161415156125de576040517f08c379a00000000000000000000000000000000000000000000000000000000081526004018080602001828103825260178152602001807f536f6c7574696f6e2065786973747320616c726561647900000000000000000081525060200191505060405180910390fd5b60006125ec8686868661191a565b90506001151581151514151561266a576040517f08c379a00000000000000000000000000000000000000000000000000000000081526004018080602001828103825260158152602001807f536f6c7574696f6e206973206e6f742076616c6964000000000000000000000081525060200191505060405180910390fd5b612672614748565b604051806060016040528061268989898989612f83565b81526020013373ffffffffffffffffffffffffffffffffffffffff168152602001600015158152509050601381908060018154018082558091505090600182039060005260206000209060020201600090919290919091506000820151816000015560208201518160010160006101000a81548173ffffffffffffffffffffffffffffffffffffffff021916908373ffffffffffffffffffffffffffffffffffffffff16021790555060408201518160010160146101000a81548160ff02191690831515021790555050505080601460003373ffffffffffffffffffffffffffffffffffffffff1673ffffffffffffffffffffffffffffffffffffffff1681526020019081526020016000206000820151816000015560208201518160010160006101000a81548173ffffffffffffffffffffffffffffffffffffffff021916908373ffffffffffffffffffffffffffffffffffffffff16021790555060408201518160010160146101000a81548160ff0219169083151502179055509050508060156000836000015181526020019081526020016000206000820151816000015560208201518160010160006101000a81548173ffffffffffffffffffffffffffffffffffffffff021916908373ffffffffffffffffffffffffffffffffffffffff16021790555060408201518160010160146101000a81548160ff0219169083151502179055509050507f01d5f9f5a890e5385b4f1d07d3c8c1f739f82bb433ed461d4551b7af3edc63408333604051808381526020018273ffffffffffffffffffffffffffffffffffffffff1673ffffffffffffffffffffffffffffffffffffffff1681526020019250505060405180910390a150505050505050565b6000806002600084815260200190815260200160002060009054906101000a900473ffffffffffffffffffffffffffffffffffffffff169050600073ffffffffffffffffffffffffffffffffffffffff168173ffffffffffffffffffffffffffffffffffffffff161415915050919050565b60008061298783611b7f565b90508073ffffffffffffffffffffffffffffffffffffffff168473ffffffffffffffffffffffffffffffffffffffff1614806129f657508373ffffffffffffffffffffffffffffffffffffffff166129de8461112e565b73ffffffffffffffffffffffffffffffffffffffff16145b80612a075750612a06818561224f565b5b91505092915050565b612a1b838383613096565b612a2583826133bd565b612a2f8282613561565b505050565b612a3e8282613628565b612a488282613561565b612a518161382e565b5050565b60011515612a6282612909565b1515141515612ad9576040517f08c379a00000000000000000000000000000000000000000000000000000000081526004018080602001828103825260148152602001807f546f6b656e20646f6573206e6f7420657869737400000000000000000000000081525060200191505060405180910390fd5b612b8d60118054600181600116156101000203166002900480601f016020809104026020016040519081016040528092919081815260200182805460018160011615610100020316600290048015612b725780601f10612b4757610100808354040283529160200191612b72565b820191906000526020600020905b815481529060010190602001808311612b5557829003601f168201915b5050505050612b88612b8384611d18565b611c35565b61387a565b601260008381526020019081526020016000209080519060200190612bb39291906147b8565b5050565b6000807f30644e72e131a029b85045b68181585d2833e84879b9709143e1f593f00000019050612be5614838565b612bed6138be565b90508060800151516001865101141515612c0657600080fd5b612c0e614880565b6040518060400160405280600081526020016000815250905060008090505b8651811015612cb257838782815181101515612c4557fe5b90602001906020020151101515612c5b57600080fd5b612ca382612c9e856080015160018501815181101515612c7757fe5b906020019060200201518a85815181101515612c8f57fe5b90602001906020020151613d17565b613db3565b91508080600101915050612c2d565b50612cd98183608001516000815181101515612cca57fe5b90602001906020020151613db3565b9050612d1f85600001518660200151612cf184613e70565b8560400151612d038a60400151613e70565b8760600151612d158960000151613e70565b8960200151613f0c565b1515612d315760019350505050612d39565b600093505050505b92915050565b600081600001549050919050565b6000612d6e8473ffffffffffffffffffffffffffffffffffffffff16612f38565b1515612d7d5760019050612f30565b60008473ffffffffffffffffffffffffffffffffffffffff1663150b7a02338887876040518563ffffffff1660e01b8152600401808573ffffffffffffffffffffffffffffffffffffffff1673ffffffffffffffffffffffffffffffffffffffff1681526020018473ffffffffffffffffffffffffffffffffffffffff1673ffffffffffffffffffffffffffffffffffffffff16815260200183815260200180602001828103825283818151815260200191508051906020019080838360005b83811015612e58578082015181840152602081019050612e3d565b50505050905090810190601f168015612e855780820380516001836020036101000a031916815260200191505b5095505050505050602060405180830381600087803b158015612ea757600080fd5b505af1158015612ebb573d6000803e3d6000fd5b505050506040513d6020811015612ed157600080fd5b8101908080519060200190929190505050905063150b7a0260e01b7bffffffffffffffffffffffffffffffffffffffffffffffffffffffff1916817bffffffffffffffffffffffffffffffffffffffffffffffffffffffff1916149150505b949350505050565b60008060007fc5d2460186f7233c927e7db2dcc703c0e500b653ca82273b7bfad8045d85a47060001b9050833f91506000801b8214158015612f7a5750808214155b92505050919050565b600080858585856040516020018085600260200280838360005b83811015612fb8578082015181840152602081019050612f9d565b505050509050018460026000925b8184101561300c5782846020020151600260200280838360005b83811015612ffb578082015181840152602081019050612fe0565b505050509050019260010192612fc6565b9250505083600260200280838360005b8381101561303757808201518184015260208101905061301c565b5050505090500182600260200280838360005b8381101561306557808201518184015260208101905061304a565b5050505090500194505050505060405160208183030381529060405280519060200120905080915050949350505050565b6130a0338261297b565b15156130f7576040517f08c379a000000000000000000000000000000000000000000000000000000000815260040180806020018281038252602b815260200180614a54602b913960400191505060405180910390fd5b600073ffffffffffffffffffffffffffffffffffffffff168273ffffffffffffffffffffffffffffffffffffffff161415151561317f576040517f08c379a0000000000000000000000000000000000000000000000000000000008152600401808060200182810382526023815260200180614af66023913960400191505060405180910390fd5b8273ffffffffffffffffffffffffffffffffffffffff1661319f82611b7f565b73ffffffffffffffffffffffffffffffffffffffff1614151561322a576040517f08c379a000000000000000000000000000000000000000000000000000000000815260040180806020018281038252601f8152602001807f546f6b656e206f776e65722061646472657373206973206e6f742066726f6d0081525060200191505060405180910390fd5b613271600460008573ffffffffffffffffffffffffffffffffffffffff1673ffffffffffffffffffffffffffffffffffffffff168152602001908152602001600020614090565b60006002600083815260200190815260200160002060006101000a81548173ffffffffffffffffffffffffffffffffffffffff021916908373ffffffffffffffffffffffffffffffffffffffff160217905550816002600083815260200190815260200160002060006101000a81548173ffffffffffffffffffffffffffffffffffffffff021916908373ffffffffffffffffffffffffffffffffffffffff16021790555061335d600460008473ffffffffffffffffffffffffffffffffffffffff1673ffffffffffffffffffffffffffffffffffffffff1681526020019081526020016000206140b3565b808273ffffffffffffffffffffffffffffffffffffffff168473ffffffffffffffffffffffffffffffffffffffff167fddf252ad1be2c89b69c2b068fc378daa952ba7f163c4a11628f55a4df523b3ef60405160405180910390a4505050565b60006134156001600660008673ffffffffffffffffffffffffffffffffffffffff1673ffffffffffffffffffffffffffffffffffffffff168152602001908152602001600020805490506140c990919063ffffffff16565b90506000600760008481526020019081526020016000205490508181141515613508576000600660008673ffffffffffffffffffffffffffffffffffffffff1673ffffffffffffffffffffffffffffffffffffffff1681526020019081526020016000208381548110151561348657fe5b9060005260206000200154905080600660008773ffffffffffffffffffffffffffffffffffffffff1673ffffffffffffffffffffffffffffffffffffffff168152602001908152602001600020838154811015156134e057fe5b9060005260206000200181905550816007600083815260200190815260200160002081905550505b600660008573ffffffffffffffffffffffffffffffffffffffff1673ffffffffffffffffffffffffffffffffffffffff16815260200190815260200160002080548091906001900361355a919061489a565b5050505050565b600660008373ffffffffffffffffffffffffffffffffffffffff1673ffffffffffffffffffffffffffffffffffffffff168152602001908152602001600020805490506007600083815260200190815260200160002081905550600660008373ffffffffffffffffffffffffffffffffffffffff1673ffffffffffffffffffffffffffffffffffffffff1681526020019081526020016000208190806001815401808255809150509060018203906000526020600020016000909192909190915055505050565b6001151561363582612909565b151514151515613690576040517f08c379a0000000000000000000000000000000000000000000000000000000008152600401808060200182810382526021815260200180614a116021913960400191505060405180910390fd5b600073ffffffffffffffffffffffffffffffffffffffff168273ffffffffffffffffffffffffffffffffffffffff1614151515613735576040517f08c379a00000000000000000000000000000000000000000000000000000000081526004018080602001828103825260198152602001807f41646472657373207368616c6c206e6f74206265206e756c6c0000000000000081525060200191505060405180910390fd5b816002600083815260200190815260200160002060006101000a81548173ffffffffffffffffffffffffffffffffffffffff021916908373ffffffffffffffffffffffffffffffffffffffff1602179055506137ce600460008473ffffffffffffffffffffffffffffffffffffffff1673ffffffffffffffffffffffffffffffffffffffff1681526020019081526020016000206140b3565b808273ffffffffffffffffffffffffffffffffffffffff16600073ffffffffffffffffffffffffffffffffffffffff167fddf252ad1be2c89b69c2b068fc378daa952ba7f163c4a11628f55a4df523b3ef60405160405180910390a45050565b6008805490506009600083815260200190815260200160002081905550600881908060018154018082558091505090600182039060005260206000200160009091929091909150555050565b60606138b68383604051806020016040528060008152506040518060200160405280600081525060405180602001604052806000815250614113565b905092915050565b6138c6614838565b60405180604001604052807f205376965d3d5e8a04d16591b51fdc00f4fe6d37876a71076e0cef84ec29462481526020017f0612f332e27383c7dafcfd1a9f6147b1f615247af94a80b0d3721740c3ee05d48152508160000181905250604051806040016040528060405180604001604052807f1827ab55e615771bfd2d27f71d7a6ccf848e9e5614427fe397775c0ce495e28c81526020017f0b812ec7518c028a770fc52fe45ef78da9fc95ab24bb78ee1bde7b9b09b36ff9815250815260200160405180604001604052807f0530956a7ca6a6bace4b0b07a3c9cb5fd6e469b1e563173c439f842d213eabd581526020017f04566cf55a85491f7e2f39c845bc112937697b242449f21f49ce2a8eed19a6828152508152508160200181905250604051806040016040528060405180604001604052807f26eb7fbe982b9215e53803b86037d5930df24007981b66501930d8dda3d7a3c381526020017f0cc1a18a1bec367edb989fed8bd5187824128e839240b821cd56edd9847a2e6f815250815260200160405180604001604052807f305880082b3f44f1b6095d1657c2ae7e5ac7d5f95e0a2d55631f3f3c23220dbc81526020017f2b052925b4a8b6cfad2ba0651ed3141f01d7df42605d319849b7bb286106a5448152508152508160400181905250604051806040016040528060405180604001604052807f2ff61edb2a7437e019ae2d513ec43521beafd6a25ed21d5c227c3854397c736b81526020017ea6a2b5b69a4e39c13de0bd9da538feeaf2bc87834c64954fe8cf6ea8d6f7d9815250815260200160405180604001604052807f06aa1da8f6197d8b7955080655165e39bb9b701b079e803ffb086ddb88d74dc281526020017f2690dbeb3c4b0352c7818a229b2afc7dd352f7686040395c4284ad5b6cfd3b4e81525081525081606001819052506003604051908082528060200260200182016040528015613bac57816020015b613b996148c6565b815260200190600190039081613b915790505b50816080018190525060405180604001604052807f1b54a833960ff55ea5d88bc3e6cec1f6dbe55fc243dcd9b4ce0fc245841d824981526020017f2af371f47182add4ba428247ddebae1343182830333279169f1c8b222b64eb9981525081608001516000815181101515613c1d57fe5b9060200190602002018190525060405180604001604052807f1305e21d423c178ea70c11beaacc5523df52863e0dfe8d975542f2c4d76e477581526020017f13a75338c1470d70ef3c6ec67395888f01d7efefb90813308934390148ee8fff81525081608001516001815181101515613c9257fe5b9060200190602002018190525060405180604001604052807f0f70a3a5fd26a22baaf0e48cc29789c8b1890d2ef5960694b5e4ce0c3af8e14d81526020017f1bf8977d519206733ff8e7b389c41851934c96fbb6f952e62794ca867071d9b781525081608001516002815181101515613d0757fe5b9060200190602002018190525090565b613d1f614880565b613d276148e0565b8360000151816000600381101515613d3b57fe5b6020020181815250508360200151816001600381101515613d5857fe5b60200201818152505082816002600381101515613d7157fe5b6020020181815250506000606083608084600060076107d05a03f190508060008114613d9c57613d9e565bfe5b50801515613dab57600080fd5b505092915050565b613dbb614880565b613dc3614902565b8360000151816000600481101515613dd757fe5b6020020181815250508360200151816001600481101515613df457fe5b6020020181815250508260000151816002600481101515613e1157fe5b6020020181815250508260200151816003600481101515613e2e57fe5b602002018181525050600060608360c084600060066107d05a03f190508060008114613e5957613e5b565bfe5b50801515613e6857600080fd5b505092915050565b613e78614880565b60007f30644e72e131a029b85045b68181585d97816a916871ca8d3c208c16d87cfd47905060008360000151148015613eb5575060008360200151145b15613ed9576040518060400160405280600081526020016000815250915050613f07565b604051806040016040528084600001518152602001828560200151811515613efd57fe5b0683038152509150505b919050565b600060606004604051908082528060200260200182016040528015613f4b57816020015b613f386148c6565b815260200190600190039081613f305790505b50905060606004604051908082528060200260200182016040528015613f8b57816020015b613f78614924565b815260200190600190039081613f705790505b5090508a826000815181101515613f9e57fe5b9060200190602002018190525088826001815181101515613fbb57fe5b9060200190602002018190525086826002815181101515613fd857fe5b9060200190602002018190525084826003815181101515613ff557fe5b906020019060200201819052508981600081518110151561401257fe5b906020019060200201819052508781600181518110151561402f57fe5b906020019060200201819052508581600281518110151561404c57fe5b906020019060200201819052508381600381518110151561406957fe5b9060200190602002018190525061408082826143f3565b9250505098975050505050505050565b6140a8600182600001546140c990919063ffffffff16565b816000018190555050565b6001816000016000828254019250508190555050565b600061410b83836040518060400160405280601e81526020017f536166654d6174683a207375627472616374696f6e206f766572666c6f770000815250614686565b905092915050565b6060808690506060869050606086905060608690506060869050606081518351855187518951010101016040519080825280601f01601f19166020018201604052801561416f5781602001600182028038833980820191505090505b509050606081905060008090506000809050600090505b88518110156141fa57888181518110151561419d57fe5b90602001015160f81c60f81b83838060010194508151811015156141bd57fe5b9060200101907effffffffffffffffffffffffffffffffffffffffffffffffffffffffffffff1916908160001a9053508080600101915050614186565b600090505b875181101561427357878181518110151561421657fe5b90602001015160f81c60f81b838380600101945081518110151561423657fe5b9060200101907effffffffffffffffffffffffffffffffffffffffffffffffffffffffffffff1916908160001a90535080806001019150506141ff565b600090505b86518110156142ec57868181518110151561428f57fe5b90602001015160f81c60f81b83838060010194508151811015156142af57fe5b9060200101907effffffffffffffffffffffffffffffffffffffffffffffffffffffffffffff1916908160001a9053508080600101915050614278565b600090505b855181101561436557858181518110151561430857fe5b90602001015160f81c60f81b838380600101945081518110151561432857fe5b9060200101907effffffffffffffffffffffffffffffffffffffffffffffffffffffffffffff1916908160001a90535080806001019150506142f1565b600090505b84518110156143de57848181518110151561438157fe5b90602001015160f81c60f81b83838060010194508151811015156143a157fe5b9060200101907effffffffffffffffffffffffffffffffffffffffffffffffffffffffffffff1916908160001a905350808060010191505061436a565b82995050505050505050505095945050505050565b60008151835114151561440557600080fd5b60008351905060006006820290506060816040519080825280602002602001820160405280156144445781602001602082028038833980820191505090505b50905060008090505b8381101561462257868181518110151561446357fe5b9060200190602002015160000151826000600684020181518110151561448557fe5b906020019060200201818152505086818151811015156144a157fe5b906020019060200201516020015182600160068402018151811015156144c357fe5b906020019060200201818152505085818151811015156144df57fe5b906020019060200201516000015160006002811015156144fb57fe5b6020020151826002600684020181518110151561451457fe5b9060200190602002018181525050858181518110151561453057fe5b9060200190602002015160000151600160028110151561454c57fe5b6020020151826003600684020181518110151561456557fe5b9060200190602002018181525050858181518110151561458157fe5b9060200190602002015160200151600060028110151561459d57fe5b602002015182600460068402018151811015156145b657fe5b906020019060200201818152505085818151811015156145d257fe5b906020019060200201516020015160016002811015156145ee57fe5b6020020151826005600684020181518110151561460757fe5b9060200190602002018181525050808060010191505061444d565b5061462b61494a565b60006020826020860260208601600060086107d05a03f19050806000811461465257614654565bfe5b5080151561466157600080fd5b600082600060018110151561467257fe5b602002015114159550505050505092915050565b60008383111582901515614735576040517f08c379a00000000000000000000000000000000000000000000000000000000081526004018080602001828103825283818151815260200191508051906020019080838360005b838110156146fa5780820151818401526020810190506146df565b50505050905090810190601f1680156147275780820380516001836020036101000a031916815260200191505b509250505060405180910390fd5b5060008385039050809150509392505050565b604051806060016040528060008019168152602001600073ffffffffffffffffffffffffffffffffffffffff1681526020016000151581525090565b6040518061010001604052806147986148c6565b81526020016147a5614924565b81526020016147b26148c6565b81525090565b828054600181600116156101000203166002900490600052602060002090601f016020900481019282601f106147f957805160ff1916838001178555614827565b82800160010185558215614827579182015b8281111561482657825182559160200191906001019061480b565b5b509050614834919061496c565b5090565b604051806101e0016040528061484c6148c6565b8152602001614859614924565b8152602001614866614924565b8152602001614873614924565b8152602001606081525090565b604051806040016040528060008152602001600081525090565b8154818355818111156148c1578183600052602060002091820191016148c0919061496c565b5b505050565b604051806040016040528060008152602001600081525090565b6040518060600160405280600390602082028038833980820191505090505090565b6040518060800160405280600490602082028038833980820191505090505090565b6040518060800160405280614937614991565b8152602001614944614991565b81525090565b6040518060200160405280600190602082028038833980820191505090505090565b61498e91905b8082111561498a576000816000905550600101614972565b5090565b90565b604051806040016040528060029060208202803883398082019150509050509056fe536f6c7574696f6e20686164206265656e207573656420666f7220746f6b656e206d696e74696e6720616c72656164794f6e6c7920636f6e7472616374206f776e65722063616e20696e766f6b652074686973206f7065726174696f6e546f6b656e2077697468207468697320696420616c7265616479206578697374735472616e73616374696f6e207375636365737366756c6c792076657269666965642e546f6b656e207472616e73666572206973206e6f7420617070726f766564206f72206e6f74206f776e657242616c616e6365206f66206f776e6572206973206c657373207468616e20696e64657841646472657373207368616c6c20626520656e642075736572206163636f756e742e4d6573736167652073656e64657220697320657175616c20746f20746f6b656e20726563697069656e7420616464726573735472616e7366657220746f206164647265737320302069732070726f68696269746564546f6b656e206f776e65722063616e206e6f7420617070726f76652068696d73656c6620746f207472616e7366657220686973206f776e20746f6b656e734d6573736167652073656e646572206973206e6f7420617070726f7665642062792074686520746f6b656e206f776e6572a165627a7a72305820d3ec07a72c3707521944a7c36f2fdf58bf33739bc221eafc072aa9f52eddabec002968747470733a2f2f73332d75732d776573742d322e616d617a6f6e6177732e636f6d2f756461636974792d626c6f636b636861696e2f63617073746f6e652f",
  "source": "pragma solidity >=0.4.21 <0.6.0;\n\nimport \"./ERC721Mintable.sol\";\nimport \"./Verifier.sol\";\n\ncontract SolnSquareVerifier is ERC721Metadata, Verifier {\n\n    struct Solution {\n        bytes32 hash;\n        address submitterAddress;\n        bool hasToken;\n    }\n\n    Solution[] solutions;\n\n    mapping (address => Solution) addressToSolution;\n\n    mapping (bytes32 => Solution) uniqueSolutions;\n\n    event SolutionAdded(bytes32 proofHash, address submitterAddress);\n\n    constructor(string memory name, string memory symbol) ERC721Metadata(name, symbol, \"https://s3-us-west-2.amazonaws.com/udacity-blockchain/capstone/\") public {}\n\n    function addSolution\n    (\n        uint[2] memory a,\n        uint[2][2] memory b,\n        uint[2] memory c,\n        uint[2] memory input\n    )\n    public\n    {\n        bytes32 proofHash = createProofHash(a,b,c, input);\n        require(uniqueSolutions[proofHash].submitterAddress == address(0), \"Solution exists already\");\n\n        bool isValid = verifyTx(a,b,c, input);\n        require(isValid == true, \"Solution is not valid\");\n\n        Solution memory solution =  Solution({\n        hash: createProofHash(a,b,c, input), submitterAddress: msg.sender, hasToken: false});\n        solutions.push(solution);\n        addressToSolution[msg.sender] = solution;\n        uniqueSolutions[solution.hash] = solution;\n\n        emit SolutionAdded(proofHash, msg.sender);\n    }\n\n    function mint(address to, uint tokenId)\n    public\n    {\n        Solution memory solution = addressToSolution[to];\n        require(solution.hash > 0, \"Solution does not exist\");\n        require(solution.hasToken == false, \"Solution had been used for token minting already\");\n        _mint(to, tokenId);\n        addressToSolution[to].hasToken = true;\n        setTokenURI(tokenId);\n    }\n\n\n    function createProofHash(uint[2] memory a, uint[2][2] memory b, uint[2] memory c, uint[2] memory input)\n    internal\n    pure\n    returns (bytes32)\n    {\n        bytes32 keyBytes = keccak256(abi.encodePacked(a,b,c, input));\n        return keyBytes;\n    }\n}\n\n\n//contract Verifier {\n//    function verifyTx(uint[2] memory a, uint[2][2] memory b, uint[2] memory c, uint[2] memory input) public returns (bool r);\n//}\n\n// TODO [+] define a contract call to the zokrates generated solidity contract <Verifier> or <renamedVerifier>\n\n// TODO [+] define another contract named SolnSquareVerifier that inherits from your ERC721Mintable class\n\n// TODO [+] define a solutions struct that can hold an index & an address\n\n// TODO [+] define an array of the above struct\n\n// TODO [+] define a mapping to store unique solutions submitted\n\n// TODO [+] Create an event to emit when a solution is added\n\n// TODO Create a function to add the solutions to the array and emit the event\n\n// TODO Create a function to mint new NFT only after the solution has been verified\n//  - make sure the solution is unique (has not been used before)\n//  - make sure you handle metadata as well as tokenSuplly",
  "sourcePath": "/home/pranshu/Documents/Real_estate_blockchain/Github_Rastogi/Real_Estate_Blockchain/eth-contracts/contracts/SolnSquareVerifier.sol",
  "compiler": {
    "name": "solc",
    "version": "0.5.5+commit.47a71e8f.Emscripten.clang"
  },
  "schemaVersion": "3.0.9",
  "updatedAt": "2019-11-16T11:05:34.243Z",
  "devdoc": {
    "methods": {
      "isApprovedForAll(address,address)": {
        "details": "Tells whether an operator is approved by a given owner",
        "params": {
          "operator": "operator address which you want to query the approval of",
          "owner": "owner address which you want to query the approval of"
        },
        "return": "bool whether the given operator is approved by the given owner"
      },
      "setApprovalForAll(address,bool)": {
        "details": "Sets or unsets the approval of a given operator An operator is allowed to transfer all tokens of the sender on their behalf",
        "params": {
          "approved": "representing the status of the approval to be set",
          "to": "operator address to set the approval"
        }
      },
      "supportsInterface(bytes4)": {
        "details": "implement supportsInterface(bytes4) using a lookup table"
      },
      "tokenByIndex(uint256)": {
        "details": "Gets the token ID at a given index of all the tokens in this contract Reverts if the index is greater or equal to the total number of tokens",
        "params": {
          "index": "uint256 representing the index to be accessed of the tokens list"
        },
        "return": "uint256 token ID at the given index of the tokens list"
      },
      "tokenOfOwnerByIndex(address,uint256)": {
        "details": "Gets the token ID at a given index of the tokens list of the requested owner",
        "params": {
          "index": "uint256 representing the index to be accessed of the requested tokens list",
          "owner": "address owning the tokens list to be accessed"
        },
        "return": "uint256 token ID at the given index of the tokens list owned by the requested address"
      },
      "totalSupply()": {
        "details": "Gets the total amount of tokens stored by the contract",
        "return": "uint256 representing the total amount of tokens"
      }
    }
  },
  "userdoc": {
    "methods": {}
  }
}